:020000040100F9
:10000000505C0021653001015110020151300101A5
:100010005130010151300101513001010000000057
:100020000000000000000000000000003D31010160
:100030005130010100000000E532010151300101A1
:100040006533010165330101653301016533010148
:100050006533010165330101653301016533010138
:100060009F490201653301016533010165330101D7
:10007000B5490201653301016533010165330101B1
:1000800065330101CB49020165330101653301018B
:1000900065330101653301016533010165330101F8
:1000A00065330101653301016533010165330101E8
:0800B000653301016533010114
:1000B80080EA101404F0F01480EA0410604081EA29
:1000C800111404F0F01481EA0411614082EA121458
:1000D80004F0F01482EA0412624083EA131404F074
:1000E800F01483EA0413634080EA102404F47F4484
:1000F80080EA0420604081EA112404F47F4481EA04
:100108000421614082EA122404F47F4482EA042232
:10011800624083EA132404F47F4483EA042363409F
:1001280081EA500404F0553480EA4400614083EACF
:10013800520404F0553482EA4402634082EA90048F
:1001480004F0333480EA8400624083EA910404F0C6
:10015800333481EA84016340704700BF82EA900427
:1001680004F0333480EA8400624083EA910404F0A6
:10017800333481EA8401634081EA500404F0553441
:1001880080EA4400614083EA520404F0553482EA6C
:100198004402634080EA102404F47F4480EA042087
:1001A800604081EA112404F47F4481EA042161401B
:1001B80082EA122404F47F4482EA0422624083EA39
:1001C800132404F47F4483EA0423634080EA101470
:1001D80004F0F01480EA0410604081EA111404F07D
:1001E800F01481EA0411614082EA121404F0F01458
:1001F80082EA0412624083EA131404F0F01483EADA
:1002080004136340704700BF2DE9F14F94464FEA4D
:10021800930B8A68CB6808684968FFF749FF0BF1B8
:10022800060E33E083EA134480EA134582EA134753
:1002380046BA96EA3444604000F00F1684EA063461
:1002480020F00F1684EA161054BA94EA0106724098
:1002580002F00F1486EA043622F00F1486EA14120C
:100268004CBA6540694001F00F1485EA043521F065
:100278000F1485EA14115CBA67407B4003F00F1431
:1002880087EA043723F00F1487EA1413BCE8F00058
:100298006040694072407B4000F0E03400F0103567
:1002A80000F00F3040EA540040EAC50080EA9004AC
:1002B80004F0332480EA8400604001F0E03401F067
:1002C800103501F00F3141EA540141EAC50181EAD4
:1002D800910404F0332481EA8401614002F0E0349F
:1002E80002F0103502F00F3242EA540242EAC50227
:1002F80082EA920404F0332482EA8402624003F022
:10030800E03403F0103503F00F3343EA540343EAB3
:10031800C50383EA930404F0332483EA8403634027
:1003280081EA324787EA134581EA354690EA0604AE
:1003380084EA034B82EA1B4280EA044484EA0544C7
:1003480083EA144A85EA14448BEA044B84EA374466
:1003580081EA0B4181EA164104EA0A00454082EA33
:1003680004082BEA080041408AEA0B0602EA060064
:1003780084EA34438AEA3A4603EA06077840454065
:10038800414088EA38478BEA3B4007EA000985EA9A
:10039800090583EA0709464006EA0906714085EA25
:1003A800010005EA3546464006EA314181EA304116
:1003B80081EA364606EA304686EA3546344008EA97
:1003C800010886EA01052A4086EA364003405A4079
:1003D80081EA31431F407C4080EA030709EA0709A4
:1003E80088EA0908544088EA020806EA0A0601EA87
:1003F8000B018AEA0B0215408AEA3A42104045404E
:100408008BEA3B4003405E404240174079404D40F4
:100418004E40E443F64386EA18435D4085EA0540CA
:1004280083EA134386EA034183EA384284EA1143A4
:1004380083EA04435FEA3343BEF1010E3FF6F2AEAE
:100448001ED4BCE8F0006040694072407B4020BC8C
:10045800FFF784FE28606960AA60EB60BDE8F08F52
:100468002DE9E0414FF2F00280EA1031114080EAB4
:100478000130484041088208C3084FF0000E4FE79A
:1004880000F0113001F0113102F0113203F0113394
:1004980040EA410040EA820040EAC3004FF2F0021D
:1004A80080EA1031114080EA01304840BDE8E0811F
:1004B8002DE9F04F02F11C050646074600EB8508BA
:1004C80051F8040B043A46F8040BF9D14FF0010C2B
:1004D800FFF7C6FF5FEA302080EA0C001ECF4140DC
:1004E8004A4053405C401EC62000464517D04FEA9C
:1004F8004C0C1CF4807F18BFACF1E50C2C2DE7D018
:100508003C2D06D1FFF7ACFF06CF41404A4006C656
:10051800100006CF41404A4006C61000D8E736E929
:100528000F00FFF7C5FD043D86E80F00F7D1BDE8D1
:10053800F08F00BF2DE9F14F03F11C0402EB840C8E
:100548004FEA930B8A68CB6808684968FFF7B0FDE3
:100558003CE9F0006040694072407B400BF1060EB8
:100568004EE083EA134480EA134582EA134746BA09
:1005780096EA3444604000F00F1684EA063420F00E
:100588000F1684EA161054BA94EA0106724002F073
:100598000F1486EA043622F00F1486EA14124CBAB5
:1005A8006540694001F00F1485EA043521F00F1405
:1005B80085EA14115CBA67407B4003F00F1487EAA0
:1005C800043723F00F1487EA141344BA44404DBA91
:1005D8004D4056BA56405FBA5F4087EA174886EAE8
:1005E800174B84EA17464FEA38488BEA1B4485EADA
:1005F8001B4788EA1B4580EA3440694072407B40CB
:1006080000F0703400F0803500F00F3040EA44000C
:1006180040EAD50080EA900404F0332480EA84009C
:10062800604001F0703401F0803501F00F3141EA8B
:10063800440141EAD50181EA910404F0332481EAB6
:100648008401614002F0703402F0803502F00F320C
:1006580042EA440242EAD50282EA920404F03324D0
:1006680082EA8402624003F0703403F0803503F0BC
:100678000F3343EA440343EAD50383EA930404F0BF
:10068800332483EA84036340C943DB4381EA0004DB
:1006980083EA044686EA020183EA014382EA334593
:1006A80083EA14435C4084EA00077FEA040A8AEA82
:1006B800024A8AEA010B87EA11488AEA374A80EA3D
:1006C800060181EA1A418AEA030A04EA0A00454057
:1006D80088EA040707EA0B0041408AEA0B0608EAA1
:1006E800060084EA34428AEA3A4602EA0603584097
:1006F8004540414087EA37438BEA3B4003EA00091B
:1007080085EA090582EA0309464006EA09067140B6
:1007180085EA010005EA3546464006EA314181EAA4
:10072800304181EA364606EA304686EA35463440A4
:100738000F4086EA010508EA050886EA36400240C5
:1007480088EA020881EA314213405C4080EA0203E9
:1007580009EA030987EA0907674088EA040806EAFC
:100768000A0601EA0B018AEA0B0425408AEA3A44A0
:10077800204045408BEA3B4B02EA0B02564084EA94
:100788000B04234059406E40694087EA364080EAAE
:10079800384080EA060380EA104481EA134585EA76
:1007A800344585EA17427D4082EA354180EA0540B2
:1007B8003CE9F0006040694072407B40BEF1010EA8
:1007C8003FF6CFAE20BCFFF7C9FC28606960AA607D
:1007D800EB60BDE8F08F00BFFFF76ABE2DE9F007B8
:1007E80091E8F807B2E802105B1854EB0C04B2E881
:1007F80002104D4156EB0C06B2E802104F4158EB7F
:100808000C08B2E8021059EB01095AEB0C0A80E80F
:10081800F80780410130BDE8F00770472DE9F0077F
:1008280091E8F807B2E802105B1A74EB0C04B2E81E
:1008380002108D4176EB0C06B2E802108F4178EB7E
:100848000C08B2E8021079EB01097AEB0C0A80E88F
:10085800F80780414042BDE8F00770472DE9F007EE
:10086800524290E87800B1E880071740DB1918EA8F
:10087800020854EB080419EA020955EB09051AEABB
:10088800020A56EB0A0678C090E87800B1E88007BB
:1008980017407B4118EA020854EB080419EA0209D8
:1008A80055EB09051AEA020A56EB0A0678C0804198
:1008B8000130BDE8F00770472DE9F007524290E893
:1008C8007800B1E880071740DB1B18EA020874EBD0
:1008D800080419EA020975EB09051AEA020A76EB17
:1008E8000A0678C090E87800B1E880071740BB4155
:1008F80018EA020874EB080419EA020975EB0905FD
:100908001AEA020A76EB0A0678C080414042BDE83E
:10091800F00770472DE9F00152424FF0040890E8C3
:10092800300091E8C000A31B1340E41AF618EB1B33
:100938001340ED1AFF1830C0C0C1B8F10108EED15C
:10094800BDE8F001704700BF00B592E8DC072DE96B
:10095800DC07B1E8805702B4A7FB02510A95A8FB4F
:10096800020B09180020E7FB03105BEB000B0020CB
:100978004041E9FB02B00B91A8FB0351401800214C
:100988004941EAFB02011BEB050B0025E7FB04B517
:1009980068410025E7FB0605694100256D41E8FB34
:1009A8000615CDF830B0A9FB03B689190026EAFB75
:1009B8000316754100267641ECFB035610EB0B003D
:1009C8005FF0000BE8FB040B51EB0B015FF0000B31
:1009D800E9FB041B55EB0B055FF0000BEAFB045B1E
:1009E80056EB0B065FF0000B5BEB0B0BECFB046BA1
:1009F8000D90ACFB0230059C2D180020EEFB025038
:100A080046410020E9FB04605BEB000B00204041FD
:100A1800EAFB04B05B180021E7FB04314D410021DB
:100A2800E8FB0451069C4E410021E8FB04615BEBA6
:100A3800010B0021E9FB04B1484100214941EAFBCF
:100A480004010E93A7FB0432079CB6180022E7FBAB
:100A580004625BEB020B0022E8FB04B25041002267
:100A6800E9FB0402514100225241EAFB0412049CB2
:100A7800ED180023E9FB04535E410023EAFB0463FD
:100A8800089C5BEB030B0023E7FB04B358410023EE
:100A9800E8FB040359410023E9FB04135A410023EE
:100AA8005B41EAFB04230F955DF8049B99E8000677
:100AB800DDF80080A9FB08541BEB040B0024EAFBBB
:100AC80008B4DDF8108060410024ECFB08046141A3
:100AD8000024EEFB081462410024E9FB082463416A
:100AE80000246441EAFB0834DDF804807619002507
:100AF800EEFB08655BEB050B0025E9FB08B56841D3
:100B08000025EAFB0805DDF8148069410025ECFBA7
:100B180008156A410025EEFB08256B410025E9FB15
:100B280008356C4100256D41EAFB08450F96DDF854
:100B38000880AEFB087680190026E9FB080671419B
:100B48000026EAFB0816DDF8188072410026ECFB47
:100B5800082673410026EEFB083674410026E9FB9F
:100B68000846754100267641EAFB0856DDF80C80F8
:100B78001BEB070B0027ECFB08B778410027EEFBBF
:100B8800080779410027E9FB08177A410027EAFBA3
:100B98000827DDF81C807B410027ECFB08377C41E7
:100BA8000027EEFB08477D410027E9FB08577E41F7
:100BB80000277F41EAFB086708B000BD2DE9F14F27
:100BC80087B0FFF7C1FEDDF81C8008F1200888E82F
:100BD800FF00FFBC87E87F08BDE8F08F00B591E80B
:100BE8004C57A2FB02410194A2FB034524190020A3
:100BF800E2FB06506D417F41641802940021E2FB3C
:100C08000801A3FB034B654103950024E3FB06049D
:100C180040417F41091900246441E2FB0914FF07A0
:100C280050EB0B0004900025E2FB0A455FF0000B37
:100C3800E3FB081B49415FEA370714EB0B045FF03D
:100C4800000BE3FB094B55EB0B055FF0000B5BEB6F
:100C58000B0BE2FB0C5BFF0F0020E2FB0EB0002247
:100C68005141E6FB061205910021E6FB084164416B
:100C78007F416D180021E3FB0A515BEB010B00215A
:100C8800E3FB0CB1484100214941E3FB0E0100237D
:100C9800E6FB09531BEB030B0023E6FB0AB35841A1
:100CA8000023E6FB0C03594100235B41E6FB0E13CE
:100CB800FF07544106946D417F41A8FB0826554122
:100CC80007950022E8FB09B25BEB0B0B7F4180180C
:100CD8000022E8FB0A0251410022E8FB0C125A41AB
:100CE80000235B41E8FB0E230024E9FB0E340025BA
:100CF800E9FB0A1552190025E9FB0C256B41002573
:100D0800EAFB0C356C4100256D41EAFB0E45FF07F7
:100D18005BEB060B0026ECFB0E5640414941524165
:100D28005B4164416D417641AEFB0EE848F1000835
:100D38007F00A9FB0979784151EB0901AAFB0A7ADE
:100D48007A4153EB0A03ACFB0C7C7C4155EB0C0558
:100D580056EB0E0648F1000700BD00BF2DE9F14F24
:100D680087B0FFF73BFFDDF81C8008F1200888E812
:100D7800FF00FFBC87E87F08BDE8F08F30B44FF074
:100D8800000310F8014B11F8015B013A84EA0504ED
:100D980043EA0403F5D1A3F101034FEAD37030BC51
:100DA800704700BF4FF0000310F8012B013943EAE8
:100DB8000203F9D1A3F101034FEAD370704700BFD2
:100DC80030B411F8014B12F8015B6C4000F8014B8C
:100DD800013BF6D130BC70472DE9F00791E8F807E0
:100DE800B2E802105B1854EB0C04B2E802104D4153
:100DF80056EB0C06B2E802104F4158EB0C08B2E86B
:100E0800021059EB01095AEB0C0A8941B3F1FF337F
:100E180074F1FF3475F1FF3576F1000677F10007BC
:100E280078F1000879F101097AF1FF3A51F10001EE
:100E38005B184C414D4156F1000657F1000758F137
:100E4800000859EBD1795AEB010A80E8F807BDE8A8
:100E5800F00770472DE9F00791E8F807B2E80210AB
:100E68005B1A74EB0C04B2E802108D4176EB0C06A9
:100E7800B2E802108F4178EB0C08B2E8021079EB67
:100E880001097AEB0C0A89415B184C414D4156F136
:100E9800000657F1000758F1000859EBD1795AEBD1
:100EA800010A80E8F807BDE8F007704718EB040866
:100EB80059EB05095AEB060A5BEB070B5FF0000CD0
:100EC8004CF1000C18EB050859EB06095AEB070A18
:100ED8005BEB070B50EB0C005FF0000C51EB0C01C7
:100EE80052EB0C0263414CF1000CB8EB070879F1A6
:100EF80000097AF1000A7BEB040BA841B141A24139
:100F0800B3416CF1000CBBEB050BB041B941AA41F0
:100F1800BB416CF1000C4CF001068CF0020718EB99
:100F2800060859EB6C095AEB6C0A7BEB6C0B70EBFF
:100F38006C0471EB6C0572EB670653EB6C076CEB9A
:100F48006C0C18EB0C0059EB0C015AEB0C025BF122
:100F5800000354F1000455F1000556EBDC7657EB1D
:100F68000C0770472DE9F14F87B0FFF7EDFCDDF86E
:100F78001080DDF81490DDF818A0FFF797FFBDE8A2
:100F8800000FFFF793FF03B05DF8048B88E8FF00BC
:100F9800BDE8F08F2DE9F14F87B0FFF71FFEDDF8B0
:100FA8001080DDF81490DDF818A0FFF77FFFBDE88A
:100FB800000FFFF77BFF03B05DF8048B88E8FF00A4
:100FC800BDE8F08F064A074B02604FF44272DB78A7
:100FD80082800822C371002382710372704700BFA8
:100FE800270B0101A8080021064A074B02604FF4AD
:100FF800B072DB7A82800822C371FF238271037288
:10100800704700BFEB040101A80800212DE9F34156
:10101800C41D0028064624F007040CBF0020204603
:1010280000F028FC071E04DA6FF00B0002B0BDE8E0
:10103800F081374DE988A88803316B7A03302A7A22
:1010480089B280B20CF0BBFD0028EDDB3C44A978E6
:10105800EB78002E04F10304194424F0030400FB88
:1010680001F10CBF0020204600F08AFD20440EB993
:101078000028D9DBEA7A0446B2B1EB7B697C1344D9
:101088001944FF29D0D80330002EAA89C9B220F00C
:1010980003040CBF0020204600F0E4FD0028C3DB59
:1010A80004440EB9002CBFDB012000F0D9FBB0B11D
:1010B800A97BA1B195F82A3033B340234FF481724C
:1010C8000734002E24F007040CBF0020204601F04E
:1010D800FBFE0028A8DB04440EB9002CA4DBAB7A85
:1010E800FBB1EB7AB3B10734002EA97A24F00704D8
:1010F8000CBF0020204604F0D3F9002894DB0444F8
:101108007EB9002C0DDA8FE725232822D8E700BF07
:10111800A8080021012000F0A3FB10B1AB7B002B35
:10112800E1D1734B1B6893B1A97D81B10334002EC3
:10113800EA7D24F003040CBF0020204698470028CD
:10114800FFF672AF044416B9002CFFF66DAF694B79
:101158001B688BB1297C79B10334002E24F0030479
:101168000CBF0020204698470028FFF65DAF0444D6
:1011780016B9002CFFF658AF5F4B1F68B7B1697CF2
:10118800A1B10334002E2B7D24F0030408BF0020F6
:10119800009318BF2046EB7CAA7CB8470028FFF6CE
:1011A80043AF044416B9002CFFF63EAF072000F009
:1011B80057FB98B1A97D89B10334002E2A7E24F00B
:1011C80003040CBF0020204600F03AFE0028FFF67A
:1011D8002BAF044416B9002CFFF626AFB6FA86F7F3
:1011E80095F823007F09A0B103346B7FA97E24F012
:1011F800070419443B4644F00404C9B2224600F0EF
:101208005FFE0028FFF610AF044416B9002CFFF665
:101218000BAF95F8241000294CD004F10708002ED4
:10122800EA8C28F007080CBF002040460CF0DBFCD5
:10123800041EFFF6F9AE4444002E3ED1002CFFF602
:10124800F3AEA97F002945D095F82230002B41D074
:101258002A8C0734002E02F1240224F007080CBF60
:101268000020404692B20CF0BEFC0028FFF6DCAE2F
:10127800404416B90028FFF6D7AE03302B7FA97E6D
:1012880020F0070019443B4640F0040495F822007A
:10129800C9B2224600F006FE0028FFF6C5AE044497
:1012A80086B9002CFFF6C0AEEB6AF3B1C6B1EC62AA
:1012B8000020BBE6002EC4D08846E98C404608F0E2
:1012C800E9FEBEE72A8C4046A97F083292B208F0B0
:1012D800E7FEE9E7002EE7D0002211461046F6E7C0
:1012E80028343FF5A1AE2046A0E6002EE0D1FAE76B
:1012F8008C15002190150021941500211FB572B698
:10130800194B1C6BECB9BFF34F8F1849184BCA68BF
:1013180002F4E0621343CB60BFF34F8F00BFFDE7D9
:10132800B2FBF6F22B465D1C002AF9D1DBB203F1C1
:1013380010056D4405F80C2C0A2233B901A8A04702
:10134800E1E7024600230A26EDE7013BDBB203F1A1
:1013580010050DEB0506B0FBF2F502FB1500303069
:1013680006F80C0C2846E8E7A808002100ED00E084
:101378000400FA0513B5124C68462389ADF800300D
:10138800E388ADF80430A388ADF8023002F06CFAB7
:1013980018B1FA219C20FFF7B1FF207D02F094FAE2
:1013A80008B1FD21F6E7E07C02F088FA08B1FE21D9
:1013B800F0E794F8280007F0D5F802B010BD00BF98
:1013C800A808002138B5054600283DD00BF01EFCC2
:1013D80010B94FF0FF3038BD09F022FAB0F5FA7FA6
:1013E800F7D81B4C002125631B2504F10F0084F856
:1013F80034102A46217084F82A10E1620BF052FE5C
:101408000123032108200222A370E370E372A3746E
:101418002376F72321722384FB23A0721F20A17354
:101428004921E3840A23A580E5806272A081E174E2
:10143800E27584F82830EFF3108472B600F050FD9E
:1014480004B962B60020C6E76FF01500C3E700BF15
:10145800A808002138B51446002840F0C480634D20
:1014680095F83430032B00F0BB80B9B112B96FF096
:10147800150038BD0139172900F2B580DFE801F001
:101488000C1D20366069873C6C6F814248565B8D25
:10149800909FA2A596B3B3A81378AB700020FFF76E
:1014A800B5FD0028B7BF012302236FF00B0085F8B4
:1014B8003430A8BF85F83430DBE71378EB70EDE7FC
:1014C8001379002BD3D05379002BD0D01288FB2A64
:1014D800CDD863881B3B9BB2E02BC8D81A2AC6D943
:1014E8002368A2886B60424B9A80D7E71378EA7B1F
:1014F8009342BCD3EB72D1E71378EA7A9342B6D819
:10150800EB73CBE71378EA7A9342B0D86B74C5E7EC
:101518001378002BABD05378013BDBB2F82BA6D85D
:10152800138892786B82334B9A70B7E71078687596
:1015380006F0D6FFB2E71378002B98D02B76ADE7EC
:10154800012000F08DF9237808B1012B8FD9AB73F6
:10155800A4E71388AB81A1E71378AB759EE7072052
:1015680000F07EF910B92378012B80D9072000F00C
:1015780077F918B12378002B3FF479AF2378EB750E
:101588008CE71378082B3FF672AF2B7486E7138825
:10159800FF2B3FF66CAFAB7280E713786B767DE775
:1015A80013780E2B3FF663AFAB7677E72368124AC2
:1015B800C5F81E3063685360238913816EE713787A
:1015C800EB766BE713786B7768E713782B7765E72B
:1015D80013785A1E092A3FF64AAF85F828305DE786
:1015E8004FF0FF3045E76FF02C0042E7A8080021D4
:1015F800AC080021BA080021C6080021F8B50D463C
:10160800064630B329B311F0070422D1124F97F8D8
:101618003430012B02D16FF00B00F8BD032B02D13F
:101628004FF0FF30F9E700F097FC0028F8D0284683
:10163800FFF7ECFC0028EEDB06F09AFF3046F96A6B
:1016480002F0A4F9FFF796FE0323204687F834300A
:10165800E3E76FF01500E0E7A808002110B5074C94
:1016680094F83430032B03D102F0A8F903F04CF8B6
:101678000CF0DDFB002084F8340010BDA808002120
:1016880008B502F04DF903490320BDE8084000F011
:10169800DFB800BFF10F000108B502F055F90349A2
:1016A8000220BDE8084000F0D3B800BFCD0F00010C
:1016B800074B4FF0FF3141F6FF72C3E900120549AD
:1016C8000022C1E900221F21C3E90212704700BFAE
:1016D80000000021E00800213F280CD801380B4BFE
:1016E800C0F3421200F01F0053F8223023FA00F032
:1016F80000F001007047FF2806D04038044BC0F3C3
:10170800421200F01F00EFE701207047000000219F
:10171800E0080021074B0146006849681A4603C2E1
:1017280040F48C2200201A6041F0107242F4FF62EB
:101738005A607047000000210246034B0068516858
:1017480003C30020704700BFE00800210246034B96
:101758000068516803C30020704700BF08000021DB
:101768000138064BC0F3421200F01F0003EB82035E
:101778009B6823FA00F000F0010070470000002188
:101788000A8870B595B2C67CC2F30E020488023688
:1017980002F118033444C35AA4B233442344013B2E
:1017A800B3FBF4F303FB0422438892B29342044B45
:1017B8008BBF2B40AB4313439BB20B8070BD00BF64
:1017C8000080FFFF4A1E062A08B50346084604D8CB
:1017D8004FF4D1711520FFF791FD094A914202D9C2
:1017E80040F2A311F6E711B903B1196008BD2BB196
:1017F8001B680022C3E901211A1D1A600430F5E7AD
:10180800FAFFFF7F10B5114B00EB41041A7863898A
:10181800B3FBF2F303FB0223013A1A44B2F5706FEB
:101828000279807828BF00231A440B18B2FBF0F124
:1018380000FB11215B1AB3FBF0F100FB11331344D9
:101848006FEA43436FEA5343638110BDE808002100
:10185800024B03EB80035960704700BFE808002182
:10186800034B03EB80035868003818BF012070470A
:10187800E80800212DE9F04F10F0070A85B0054669
:1018880004D040F26F111720FFF738FD534F04467C
:101898004FF0010B07F14C06B146B04657F8043B30
:1018A8008DF80BA03BB101A898479DF80A30082B8A
:1018B80001D9F521E7E79DF80B1041BB05B131606F
:1018C8004F4506F10406E9D1002D6FD00022DFF85C
:1018D80010911227964689F8002058F827A0013F52
:1018E800BAF1000F55D09AF804609AF802C0FF2E9A
:1018F80060D039460023481C38D19C44BCF1FF0F06
:101908003FD90AB189F800E04FF49A71BBE79DF816
:101918000AC04B1D60465A0004EB4303022838BF37
:101928000220441E40422344BDF808406444CCF1E0
:10193800000C0340013C04EA0C04B4F5803F02D3D8
:1019480040F205119FE775B19A1A326091701480C0
:1019580082F803B09DF80C00107101984FEA104C02
:101968001081A2F806C004FB0134A9E758F8210049
:1019780028B190F804B0B34504BF80781B1801392A
:10198800B9E7DBB2E6458AF804303CBF5FFA8CFE63
:1019980001227B1CA1D10AB189F800E0122640F689
:1019A800FF6A58F82670B7B9013EFAD2601B05B035
:1019B800BDE8F08F0023E5E707EB410309F10109D2
:1019C8003846A3F80AA0FFF71DFF5FFA89F1BB7834
:1019D8008B42F1D8E8E74FF00009F6E7EC08002160
:1019E800E808002138B54FF6FF7302460380184B0C
:1019F80003EB8103186DA8B184780379B3FBF4F184
:101A080004FB1133DBB2194600EB4105B5F90A5066
:101A1800002D0EDB0131B1FBF4F504FB1511C9B241
:101A28008B42F1D1002038BD6381BDE838400CF00D
:101A3800A2B800EB41046389C3F30E031380C27894
:101A4800002AF1D14FF4E5711720FFF757FC00BFCA
:101A5800E80800211C4B03EB810370B51C6D05469B
:101A680044B3030404D54FF4EC711720FFF746FC88
:101A7800014620460CF062F8FF28014604D02046B3
:101A8800BDE870400CF077B8A078B5FBF0F300FB28
:101A98001353DBB219460A1D04EB4206B6F902607D
:101AA800002E09DB0131B1FBF0F200FB1211C9B2C3
:101AB8008B42F0D1002070BD8B4201D00023E3702F
:101AC80004EB42025580DAE7E8080021094B03EBF2
:101AD8008103014610B51C6D20460CF02FF8FF2835
:101AE800014604D02046BDE810400CF044B8002060
:101AF80010BD00BFE8080021F8B5104B074603EBFE
:101B0800810301461C6D20460CF018F8FF28054695
:101B180011D0E288238953EA024606D001462046BE
:101B28000CF029F801463846B04720462946FFF709
:101B380069FE0020F8BD0520FCE700BFE808002189
:101B480038B50E4B0446827903EB8203186D08B949
:101B5800052038BD8278E1799142F9D24B1CE371B6
:101B680000EB41035D89B3F90A30002BF3DBA58054
:101B78000CF001F820600020EBE700BFE808002126
:101B880070B5044610F003000E4603D04E2118200D
:101B9800FFF7B4FBFFF716FE054624B103483146AC
:101BA8000460FFF70FFE284670BD00BF84090021BE
:101BB8002DE9F14FDFF870B01E4607460D46DBF8F9
:101BC800003090469DF828A09DF82C901BB9602104
:101BD8001820FFF793FB5246092140460BF032FECE
:101BE8004A4684B2092130460BF02CFE81B2DBF85C
:101BF800000021440BF076FF386018B9286001B066
:101C0800BDE8F08F04445346414609222C603868E9
:101C18000BF0DBFD4B4609223146286801B0BDE8D0
:101C2800F04F0BF0D2BD00BF8409002170B50E46FD
:101C380004460BF01AFE054630460BF016FE044B20
:101C48002A1821461868BDE870400BF070BF00BF25
:101C580084090021024B186808B10BF037BF7047A0
:101C6800840900211F2AF8B5044613460ED89200AD
:101C7800033222F00303B3F5803F2DD2184DACB1E7
:101C8800A00710D068210920FFF738FBFF2B4FEA87
:101C9800420204D9FF339A42A8BF1A46E8E77C2AD1
:101CA800B8BF7C22E4E729706C602B8122F0030224
:101CB80028230127120403FB01F06B680025120C8E
:101CC800EEB2B14200D8F8BD14B126181F705E609C
:101CD800104401352833F3E74FF0FF30F3E700BF36
:101CE80088090021154A002170B553681578C8B2D3
:101CF800854203D8BA210920FFF700FB1C46184685
:101D0800013114F8286B0EB92346F0E700219970C9
:101D180001241289996103F126055C709208D96142
:101D280003F11E04596824F8022FA54243F8041F42
:101D38001144F8D100234361037070BD8809002164
:101D48000A4B1B89B3F5FF7F4FEA930006D25A0866
:101D58009B1A9BB2984238BF18467047B3F5EE6F8E
:101D680001D8FF22F4E740F27263F3E78809002103
:101D78004B782DE9F04106460C4602F0040702F0C4
:101D8800FB05E3B1A5BBFF23A3707B0804EB570752
:101D98003A7D032A02D1022D18BF0133E21801212E
:101DA800117503F10C01002204EB830324F81120C0
:101DB8005B68A27030463360B280BDE8F081002DC8
:101DC800E1D1012301F11E028D6120464B7004F11F
:101DD800260C1A4BCD611B8949689B0822F8023FE3
:101DE800944540F8041F1944F8D100236361CAE7F9
:101DF800D1F8048014220021A01861700BF052F968
:101E08000E4B1B89B3F5FF7F0FD25A089B1A9BB262
:101E180008EB0301C4F804802384A1606284C4F839
:101E28000C80A3842161E284ADE7B3F5EE6F4FF037
:101E3800FF02EBD940F27263EAE700BF880900218C
:101E48002DE9F84305460C46F720052191460BF08D
:101E5800F9FC061E21DB1DB906FB04F0BDE8F8837A
:101E680015F0030703D098211920FFF747FADFF888
:101E78003080C8F81050A8F81460BBB29C42EBD967
:101E8800B8F814504B46D8F810000522F72107FB84
:101E9800050001370BF099FCEFE74FF0FF30DDE765
:101EA8009C09002107B5CDE900230B4603490246EA
:101EB800081D0BF096FF03B05DF804FBB409002180
:101EC80013B5064CCDE900230B46024604F1080180
:101ED80004F10C000BF085FF02B010BDB40900211D
:101EE800144B012200214FF0FF309A60C3F8001212
:101EF800C3F80803C3F80015C3F804259A60C3F8AB
:101F080008034FF48040C3F80015C3F8042503F50F
:101F1800805341F6F8720849C3F80825C1F88000D3
:101F2800BFF34F8FBFF36F8FC1F88001C3F8082547
:101F3800704700BF00E0004100E100E002680020B7
:101F4800014B1A60704700BFC4090021014B1B6890
:101F5800184700BFC4090021024B1868003818BF91
:101F680001207047C40900218C469B22064B00B50E
:101F78000CF8032B8E4607CBCEF80300CCF80410E0
:101F8800CCF808205DF804FBD40900212DE9F041C4
:101F98001C4E044600F00107736A93F8A850B5F187
:101FA800000818BF4FF001081DB117B1338D1A078B
:101FB80014D4012916D8F36A2046984790B196F8A8
:101FC80030307BB98DB987B1308D58B996F831303A
:101FD8004BB996F8320080F0010004E096F82A30F8
:101FE800002BE6D00120BDE8F08184F0010010EA62
:101FF8000800F8D0308D8307E7D596F82A0080F0DE
:102008000100F0E7C809002110B5154C07F0CCFB1A
:1020180007F0E0FE0021A36BA08E9847237E93B9BA
:10202800A18E606A03F078FA636AB3F8AA0003F035
:10203800EDF9236C94F8301094F83C00984700238D
:1020480084F8443010BD94E8070004F10C0383E8D9
:102058000700044904F119000DF00DFAE0E700BF8C
:10206800C8090021711F0001034B93F8443003B9DC
:102078007047FFF7C9BF00BFC809002108B5094B61
:1020880093F84420022A07D1DA7A42F00102DA7280
:10209800BDE80840FFF7B8BF40F257312720FFF7E7
:1020A8002DF900BFC80900211E4910B48C6C427874
:1020B8002378D20003F0F30302F008021343827876
:1020C800920002F004021343C278120103F0EC03F9
:1020D80002F010021343027802F0030213430222B3
:1020E8002370B1F854306370A1F84C208C6C0079DF
:1020F80023784201012823F0200302F0200243EA5A
:10210800020323700CD14B6A93F8BA2093F8BB30C2
:10211800032A03F01F0308BF002243EA8213A370B7
:1021280010BC7047C8090021F0B5194C83B0A56DE3
:102138004DB3636E3BB3B4F8683001F003012F462A
:1021480006466B702B7823F003030B4307F8033B19
:102158003846B4F86820616E0BF00EF80DF10202F3
:1021680001A9E06EE56567660BF0A6FC01980BF027
:1021780091FC0346B4F868100122E06E33600BF05E
:1021880034FC03B0F0BD40F6C4012720FFF7B6F8D1
:10219800C8090021F8B5244C4FF481730646656AD6
:1021A800A4F860302A7D94F87430276F03EB82001E
:1021B80095F82111E765FF2804D11EB995F820315B
:1021C8008B4216D006F0D2FD2B7D3BB3A06F07F0F3
:1021D80075F9A16FE06D07F0C3FD8EB1B5F8E000A9
:1021E80006F07CFD002007F0A1FA022384F84430B1
:1021F800F8BD002AEAD1384607F060F907F0EAFD91
:1022080095F82131B5F8E420033B012B8CBF002061
:102218002820104480B207F0B9F9DFE7E06D07F035
:102228004DF907F0D7FDD8E7C80900212DE9F04F8F
:10223800C24C87B0666A94F87430327D96F82011E3
:1022480003EB8203FF2B05D120B996F821318B428D
:1022580000F0F080FF2006F089FD676A00233A7AD3
:1022680004938DF80930ADF80A308DF81430062A39
:1022780000F21481DFE812F07B00E00061006100E9
:102288001201070007000DF10A0103A801F0B4FDCF
:10229800002800F0EF80039D002D00F0EB80012264
:1022A800062384F87D20BDF80A203B72002A5CD002
:1022B800E91CA4F85420022B2165B7F80920A5646D
:1022C800ADF811206AD0053B012B66D80B780322A4
:1022D800022B8DF8102000F0A080D4F880000BF0BD
:1022E80043FB0546002840F0C080236D1B781B2B5C
:1022F80000F0E48000238DF8143004A8F37C84F8FF
:10230800315023B1B4F85430002B40F08980FFF7E6
:10231800CBFEA06C07F0D2F807F05CFDB6F8E2003F
:1023280006F0DCFC012007F001FA012384F887306D
:1023380084F8443007B0BDE8F08FB7F810310DF1DC
:1023480009020DF10A01D4F88000ADF80A300BF04B
:10235800B3FA0546002800F0FF800123BDF80A20E3
:1023680084F87D303B7A002AA2D11146A1E794F87F
:102378007C3003A80DF10A01A7F81031ADF80A3036
:1023880001F03AFDE0B1039DD5B10122052384F89F
:102398007D203B72BDF80A2088E701238DF81030B4
:1023A800D4F880000BF0E0FA0546002858D101F077
:1023B8003DFD2B4680F00105EDB28DF813509AE7EC
:1023C800636A93F85180B8F1000F58D10DF10A01F2
:1023D8000DF10902D4F880000BF06EFA05460028CA
:1023E8004DD09DF809A0BAF1000F6ED1BDF80A30A2
:1023F800002B58D10123A5643B7284F87D3000235B
:10240800A4F854302365B7F80930ADF8113001232A
:102418008DF81030B8F1000FC2D000252B466AE7BE
:10242800FFF742FEA06F07F049F8A16CA06F07F014
:102438005BFC73E7374611E7414B0122D4F8800073
:10244800A36400238DF81020A4F854302365B7F84E
:102458000930ADF811300BF087FA05460028A6D0F0
:1024680001238DF81330002345E701238DF813303D
:10247800236D3BE740F2D2512720FEF73FFF4FF094
:102488000008012200233A722D4AADF80A30A4F858
:1024980054302365A264B7F80930B6E740F2DC513E
:1024A8002720FEF72BFF002301222B80AB7003238C
:1024B80084F87D203B72BDF80A20F7E607F1BA00E0
:1024C800012106F095FC012315E70146D4F88000A8
:1024D8000BF0DCFA0BF0DEFA0368D0F804B08146A2
:1024E80053EA0B022ED10023BDF80A2089F80030E8
:1024F80089F8013089F8023089F8033089F8043006
:1025080089F8053089F8063089F80730002A3FF441
:1025180071AF9DF809100029C5D0297801F0030191
:10252800012906D00121BB75022384F87D103B7276
:10253800BEE6032384F87D103B72B9E6C809002182
:102548004C0A0021019308F03BFB019B83427BEB83
:102558000101C8D2D04694E740F2C3512720FEF7C4
:10256800CDFE00BF2DE9F04F0023AD4C8BB0656A5E
:10257800CDE9083394F84430022B40F04782E36DEC
:1025880003220E46074693F8009005F1A80A5978E9
:10259800134409EA020B4FEA2918A4F8602063667D
:1025A800A4F86810002800F0C180002940F072816A
:1025B8006B7AA28E0133A16542F40072DBB2A28667
:1025C80083EA990111F0010140F0EA802A7AA2B168
:1025D800032A6B7200F2A781012A0ED008A9D4F849
:1025E80080000BF08BF9002800F01A822B6F013362
:1025F8002B676B6F43F100036B670021636A2972D5
:1026080093F8A8304BB16B793BB1238D10206971D9
:1026180043F010032385A36B9847A38EC9F3C00921
:1026280043F40063A386002307932B7D002B40F01F
:10263800BE80AB7A03F00102914500F01681A36DCC
:10264800002B00F0C78008F0010884F83280002EC3
:1026580040F0F580079E4FF0000994F88A10012099
:10266800FFF794FC8046002840F0CC81EB7C002BDF
:1026780040F02B81002095F82021B5F8E01006F0F5
:1026880061FD0020FFF7D2FDB8F1000F03D05946D5
:1026980009A8FFF749FDA38E5A0607D4A36B0021AA
:1026A80040209847A38E43F04003A38666B1EB8889
:1026B8002BB9636A93F8A830002B40F0CE80B4F8A9
:1026C80009300133A4F80930002F00F0C080B4F8B5
:1026D80005300022013384F88A20A4F805305148D7
:1026E80002F082FE089830B10BF0D4F90022027291
:1026F800514602F023F9099B33B100221A720C22C9
:102708005146099802F0E8F8B9F1000F40F08380CB
:10271800A38E1B0607D4A36B494680209847A38E37
:1027280043F08003A3860BB0BDE8F08F2B7D002B10
:1027380040F0B58094F88A30013384F88A30A38E4B
:1027480043F48063A38695F82131033B012B16D906
:1027580002F02CF998B9A36D002B00F0F58008F071
:10276800010884F83280002E3FF475AF07F01CF89A
:10277800A38E5B0669D400264FF001098EE706F0A8
:10278800C3FA0328A36D00F08D80002B00F0DC80D5
:1027980008F0010884F83280002EE7D1B1465CE7E2
:1027A8002B7DC9F3C0090797002B3FF442AFB4F85B
:1027B8006830F3B9AB7A03F0010291457FF43FAF7B
:1027C8000133BBF1030FAB7200F0C380A26D002A86
:1027D8007FF439AF4FF00009B4F86830002B14BF0C
:1027E8004FF0000808F0010884F832803EBB079ECD
:1027F80033E707F017FB0328FBD002280BD000288B
:102808007FF417AFAB7A03F0010399457FF417AF54
:10281800012384F83C30FFF7F7FB0BB0BDE8F08FDD
:10282800C8090021EC090021002A14BF4FF0000854
:1028380008F0010884F83280002E3FF40BAF06F050
:10284800B3FF079E4FF0010925E74FF00109B4F8DF
:1028580007300133A4F8073041E7B4F80530B4F87D
:10286800072013433FF430AF29E7B4F86820002A63
:10287800A6D00BF1FF32012A7BD90133BBF1030F3C
:10288800AB7266D0AB6F0133AB67EB6F43F10003FC
:10289800EB67D4E6E06E0BF088F8014688E607F0AF
:1028A80001FB47E7B4F86890B9F11B0F94BF4FF0EC
:1028B80000094FF00109002B59D008F0010884F8ED
:1028C8003280002E3FF4C9AE50E7636A05F18001FB
:1028D80095F82A0105F1900C93F8A82095F8203175
:1028E8008000B2FA82F20791013B5FFA80FE52093A
:1028F800DBB2032BD5E91C0100F2A78003930B463A
:1029080005F18001CDE9002C02464FF0000C70461D
:102918004FF0010ECDE904CE4FF0FB0CCDF808C006
:1029280007F052F9A6E6053A012A74D8079101F092
:1029380071FA0799002878D0238D082043F00803FE
:102948002385A36B984751E64FF00009CDF81C90FA
:1029580042E7A38E01203F4943F480532871A386A0
:10296800238D43F001032385A36B98478AE70793D8
:1029780032E7A38E95F8149043F48053A38606F0AB
:10298800C3F9032894F8883007D1B9F1000F0CBFB8
:102998001F221B22934228BF1346B4F86820A16D5A
:1029A8009A421CD800293FF43FAF94F8893003BB02
:1029B800AB6F08F00108013384F83280AB67AB7A5B
:1029C80003F10103AB72EB6F43F10003EB678EB3C6
:1029D80006F0EAFE594609A8FFF7A6FB31E794F886
:1029E800303043F0100384F8303000297FF42BAEE8
:1029F800F0E6A36B002120209847A36D002B7FF4FD
:102A080022AEE7E606F0D0FE07961AE740F6AD11CB
:102A18002720FEF773FC40F2B3712720FEF76EFC07
:102A280040F2D4712720FEF769FC40F2DE712720BE
:102A3800FEF764FC94F88A100120FFF7A7FA814694
:102A48000028C5D1079EB84610E640F22541062069
:102A5800FEF754FC2C0A00212DE9F041404C86B0C9
:102A680094F84430012B70D1666A5FFA83F8054602
:102A78000F46337903BB337A052B30D0012F16D19B
:102A8800ADB929462846FFF781FA80B9337D676AD0
:102A9800002B3BD197F821210120B7F8E21006F06E
:102AA80051FB002006B0BDE8F041FFF773BB06B04C
:102AB800BDE8F041FFF7A8BA238D0021042043F0B8
:102AC800040331712385A36B9847636A93F8A83090
:102AD800002BD0D0337A86F80580052BCED1238DF4
:102AE8000220204943F002032385A36B9847636AB9
:102AF80093F8A830002BC1D0236D1B78A3F10203F3
:102B0800B3FA83F35B0984F82A30B7E797F82131E1
:102B180006F1800C94F874209036013B97F8A84091
:102B2800DBB2003C18BF0124032B56E9060111D87B
:102B38000094CDE9016202460120CDE903350590F4
:102B48000B46614607F040F8A4E740F60C11272031
:102B5800FEF7D4FB40F225410620FEF7CFFB00BF6D
:102B6800C8090021180A002110B50C4C0C4A0D495F
:102B780094F84430116023B14FF4B1712720FEF767
:102B8800BDFB03F0FF02227602F0BEFC00F02EFF30
:102B9800206700F02FFFA06710BD00BFC809002103
:102BA800981500219C2E0001074A10B592F8443070
:102BB80013B10C24204610BD03F0FF04147602F074
:102BC800A3FC204610BD00BFC80900212DE9F04331
:102BD8009A4C87B0054694F844009DF83860002860
:102BE80040F02181002A18BF002900F01C81B3FAA7
:102BF80083F04009002B00F016812364A163E26290
:102C080084F8300084F88A0084F83C0084F887004F
:102C18002085A08684F8310084F8320084F87D008D
:102C280084F82A00A0642065A4F85400E065606672
:102C3800A4F8680084F88960656206F00BF907F06B
:102C4800C9F895F9280106F069F9D5F8D460D5F8DE
:102C5800CC0006F069F9304606F014FC95F825001A
:102C680006F06CF9B5F8E030702B03D9B5F8E2300E
:102C7800702B01D806F038F8636A93F8A860002E24
:102C880072D00DF0FBF8014695F821210120AF31F3
:102C980006F042FA6A4B186806F0FAFBAB7B243B55
:102CA800D5E93012072BC4F88010E2667BD9EB7B9C
:102CB800243B072B77D9B5F8F230B5F8F80095F82A
:102CC8002011984228BF1846042908BF03210BF099
:102CD800E8FF024695F8F40095F8F030904228BFD6
:102CE800104680B2984200D3C3B295F8211105F17D
:102CF800E80084F87C300CF03CFC95F821112F7D1D
:102D08000329B5F8FC6008BF04210BF0CAFF0FB90E
:102D1800043080B2864228BF0646F6B284F888603E
:102D280001F044FE002840D1636A84F8746093F887
:102D3800A8306BBBEA7C002A3ED10120FFF776FA67
:102D48000023B5F8AA0095F82520A360C4E900334C
:102D5800D5F82431E9882080618022710BB10122E5
:102D68001A6007B0BDE8F0830DF088F895F82021C7
:102D7800344B01463046344E33F8123003F5FA73BB
:102D8800A6FB036301EB9311913106F0C5F981E7C6
:102D98002B7D73BB0120FFF7FDF9636AD3F8E801C7
:102DA80006F0C2FBCCE71B239FE701F005FEB0420B
:102DB80038BF3046C6B2B7E795F8206105F1800103
:102DC80095F82A0105F19002013E8000F6B2C0B2E2
:102DD800032ED5E91C892BD801924246CDE903631D
:102DE80001264B4605960096FB26029606F0ECFE59
:102DF800A3E795F8213105F1800705F19002013B21
:102E0800DBB2032BD5E91E0112D80192024601203C
:102E1800CDE9026300260B460590394600900496DA
:102E280006F0D2FEB6E74FF420712720FEF766FAC7
:102E380040F225410620FEF761FA00BFC8090021CB
:102E480098150021CC6C0201D34D6210FFF7DCB855
:102E5800014B93F887007047C8090021054B9A8EEB
:102E680012F4C06F03D093F87D0000B17047C2F32D
:102E780000307047C8090021024B93F83500C0F3B1
:102E8800C0007047C8090021014B93F88A007047B9
:102E9800C8090021852000016D250001612A000173
:102EA8007120000108B501210020FEF70FFE28B1AE
:102EB80090F89400003818BF012008BD40F64A3148
:102EC8003220FEF71BFA00BF343270B5044692B2C6
:102ED8001E460D460AF087FE24B1034B1C601D7484
:102EE8005E741D7170BD00BF6C0A002190F86C0003
:102EF800003818BF01207047304BF0B5B0F86C703F
:102F08000C461146DA88B0F86A6085B097421D8988
:102F180028BF1746964228BF16461B2E2ED0B5F559
:102F2800A47F2DD040F6480301AA9D4228BF1D4624
:102F38000AF085FFBDF80A30BB4228BF3B46E38054
:102F4800BDF80C30AB4228BF2B462381BDF80630B4
:102F5800B34228BF33466380BDF80830AB4228BF70
:102F68002B46A380FF232370E3881B3B9BB2E02BF7
:102F780008D940F209513920FEF7C0F91B2FCED1EC
:102F880005B0F0BD63881B3B9BB2E02B02D940F231
:102F98000B51F0E7238940F64812A3F5A4739BB2BE
:102FA800934202D940F20D51E5E7A388A3F5A47333
:102FB8009BB29342E4D940F20F51DCE7140B002195
:102FC800F7B5002304460E461746CDE90033684698
:102FD800FEF7B6FD08B100201AE0009DA542F6D024
:102FE800304605F1AD030AF024FF394695F8AC20C8
:102FF8000BF0CFFD0028EAD005F1B40395F8B32013
:1030080004F1B40194F8B3000BF0C3FD0028DED03E
:1030180003B0F0BD054A516A02F11D03127F11F891
:10302800030BC0F380100BF0B4BD00BF501000219B
:103038000138C0B2032808B504D94FF43F710620FF
:10304800FEF75CF9014B185C08BD00BF986A0201E5
:103058000138C0B2032808B504D94FF43F710620DF
:10306800FEF74CF9014B185C08BD00BFF06A02017D
:103078000138C0B2032808B504D94FF43F710620BF
:10308800FEF73CF9014B185C08BD00BFCC6B020190
:1030980010B503210020FEF719FD044670B903217D
:1030A800FEF7D8FC044620B940F225313920FEF756
:1030B80025F9034B93F96C100DF0D7F9204610BD94
:1030C800140B0021014B5888704700BF140B0021D6
:1030D800044BD87BC0F3400080F0010000F00100F1
:1030E800704700BF140B002110B50BF051FD204CA8
:1030F80001F03CF800F0DEFC0CF095F902F0E2F982
:1031080001F02AFA05F026FA012000F077FC0021E8
:10311800184B194A19604FF01B13A4F86410A181C9
:1031280084F83210E173C4E900234FF4A473102229
:10313800A3604FF479432361104B58681B8960637F
:1031480004F13C00238709F0ADFF012342F210721D
:1031580004F15A0084F83C306375C4E910220DF07C
:1031680081FD04F14C00BDE810400DF0A1BD00BF89
:10317800140B00219C15002103021B00986A020110
:10318800044B41F64C521B211A629973C3E906227B
:10319800FFF7AABF140B0021F7B53A4D00F1A807B5
:1031A8000446AB69C0F8E8302B7C003B18BF01230C
:1031B80080F82931344BC0F8C83038460CF06AFF23
:1031C800064600F05FFC8306A97B53BF1B236B8870
:1031D800AA881A46A4F812312C4BA4F814211B68AB
:1031E80084F8F010A4F8F26023B194F92811B4F827
:1031F800AA009847264B1B681BB12649B4F8AA00B9
:103208009847254938460BF033FB0123A4F8DE30F4
:10321800224B1B681BB10021B4F8AA009847204B29
:103228001B681BB10021B4F8AA0098471D4B1B6806
:1032380013B1B4F8AA0098471B4B1B6813B1B4F834
:10324800AA009847AB8804F1C0006A8869780333FC
:10325800033201919BB2297892B2009104F1C40122
:10326800FEF7A6FCD4F8C03023B940F2E241392079
:10327800FEF744F8D4F8C43013B940F2E341F6E756
:1032880003B0F0BD140B002100093D00AC1500216E
:10329800A4150021380B00211E0B0021BC150021AC
:1032A800B0150021B4150021B81500212DE9F3410E
:1032B80004460E460DF01AF9002800F096802046C4
:1032C8000DF04CFA40B1B6F80130013B7F2B03D921
:1032D800122002B0BDE8F08120460DF043FA08B98B
:1032E8000C20F6E720460CF08CFF0028F8D1204689
:1032F8000DF0A5F880460028F2D1204603F0A2FD83
:103308000028E5D042F21073B6F80170F178204633
:103318005F430DF00EFA04213078FEF7D7FB05461F
:1033280006213078FEF7D2FB2DB140B141F6762167
:103338003920FDF7E3FF18B3054690F8E5802C4ED9
:103348003368EBB1403528460CF081FDC0B1284602
:103358000CF06EFDA0B9B8F1000F07D0254B284638
:103368001B68984760B141F68A21E1E72249424645
:1033780033682846096A984710B141F68F21D7E784
:1033880020460DF0E3F9014638B93A46204602F0E6
:1033980065FD40B341F69821CAE702210DF1060008
:1033A800FEF720FB054608B90D2092E7BDF8061088
:1033B8000BF00EFD294620460DF004FA2846FFF7CB
:1033C800EBFE3A462946204602F048FD024610B177
:1033D80041F6B421ACE7084B9B6E23B105F5977114
:1033E80005F1A8009847002073E7422071E700BF65
:1033F800A0150021A8150021140B0021024B1B6801
:1034080003B118470C2070479C150021034B5A88BC
:1034180002801B7883700020704700BF140B0021C6
:1034280073B5837806461A2B08D8042B04D9334A77
:1034380022FA03F3DB0705D412251AE0292B01D061
:103448003B2BF9D13088B0F5706FF5D269460BF097
:103458008EFC88B9009B93F82C2102F0FF05C2B9B5
:10346800B27883F82D21FF2283F82C2168460AF0D0
:1034780081FE284602B070BD09213088FEF726FB80
:103488000446002837D001A9B0F8AC010BF06FFC56
:1034980008B10C25EDE70821B4F8AE01FEF716FBDC
:1034A80020B94FF404613920FDF728FF03781BB9D0
:1034B80094F8C831032BECD1019B93F84221002AE0
:1034C800E7D194F8F02102F0FF05002AE1D1B4F821
:1034D800B021A3F8442194F8B82183F84621027D4D
:1034E80083F84721B27883F8482184F8F021FF2235
:1034F80083F84221BDE70225BBE700BF200038045E
:103508000188A1F11B039BB2E02B0CD8428844F23E
:103518004810A2F5A4739BB2834204D8034B002041
:10352800D9801A8170471220704700BF140B002100
:1035380038B50278447802F0010302F0020254EA36
:10354800030101D1112038BDBAB98578002DF9D011
:10355800002B18BF002400E01D4620460AF00FFD8E
:103568000028EFD028460AF00AFD0028EAD0054BCB
:1035780000209C72DD729881E5E7002BECD00024D6
:103588002546EAE7140B002113B5008801A90BF0C2
:1035980010FC044620B9019890F83E311BB13A243A
:1035A800204602B010BD90F85C3003F0FF04002BF9
:1035B800F5D190F853309B0706D1FF2380F83E31B0
:1035C80001A80AF0D7FDEBE7024954300BF053FF8E
:1035D800E6E700BF9BFD0001F7B5067804460F46F5
:1035E800EF2E03D91226304603B0F0BD90F9012022
:1035F8004378002AF6DB82789207F3D113F01000A3
:103608001DD19D0603F0030216D5002AEAD1190739
:10361800E8D42179E278E57942EA0122617942EA3F
:103628000142A17941EA0521257A41EA05418A4208
:10363800D8D81F2A12D8D5E7032AE8D1D2E713F041
:10364800600FCFD103F00702052A05D003F00F0160
:103658000D22CA40D207C5D51D07DAD5627A013ACC
:10366800062ABFD8A27A032ABCD813F0040302D1D1
:10367800023A012A03D8E27A012AB3D813B9A37C03
:10368800032BAFD8237DF8B1012BABD1237E012BBF
:10369800A8D818B36378D90702D500F071F920B318
:1036A8006378227D03F01803082B2ED1022A1CD13F
:1036B80003213046FEF70AFA054660B30CF0A1FD77
:1036C800002834D00C268EE7022B8BD0A37D013B3B
:1036D800022B87D8E37D0F2BD8D983E700F0DCF9DC
:1036E800820707D4237D022B01D111267BE7A37D16
:1036F800022BFAD000F0D0F94307CBD4237D032B5B
:10370800F3D0A37D032BC5D1EFE7022AD0D0237FC6
:10371800002BCDD0E9E703213046FEF79BF905469B
:10372800002843D0224B93F96C100CF09EFE002128
:1037380030460DF071FA28BB28460DF004F82146F2
:103748003870E07428460CF0FFFEE37E0646002B36
:103758003FF449AF00287FF446AF0246E96C68465B
:10376800FEF706FB3246E86C01210AF091FAE96C93
:1037780068460422FEF7FCFA32463146E86C0AF045
:1037880087FA30E740300CF062FB0028D4D0637829
:1037980013F0330F7FF426AFA67D2846296A0CF074
:1037A800F0FFFFF745FC8642C6D08BE707261AE7ED
:1037B800140B002130B502798BB00346042A4FD888
:1037C8004088B0F5804F4BD8264900241144ADF805
:1037D80000408DF808408A7C4D7B42F010028DF83D
:1037E800244042EA4502CD7D097F42EA850242EA49
:1037F800C102694602F01F028DF80020BDF80020C2
:10380800ADF809201A888DF80E00000A8DF80B20F3
:10381800120A8DF80D408DF80C208DF80F008DF8E8
:1038280010405A7BD3F807008DF811205A7905907B
:1038380002A88DF812209A798DF81320B3F80B207E
:103848009B7BADF818208DF81A307F238DF81B303C
:103858004FF00113CDE90734FFF7BEFE0BB030BDC2
:103868001220FBE7986A02010278034672B1427897
:1038780062B142881A2A09D982881A2A06D90068A8
:10388800034A106000209B8893807047122070477D
:10389800140B002102680020014B9A61704700BF99
:1038A800140B00210378A3F10A02112A9BBF024AD4
:1038B8000020122093737047140B0021014B587499
:1038C80000207047140B0021014B987400207047AA
:1038D800140B0021024B1B6803B1184711207047D5
:1038E800C015002108B5052000F094F804F0E6FDA5
:1038F800014B024A9A6608BD140B0021012F0001F2
:1039080008B50122054B1A7103F086FA03F0F8FF97
:103918000AF094FFBDE8084000F006BF840B0021C0
:1039280010B5064C064904F108000AF03EFF04F100
:103938000C000449BDE810400AF037BF840B002191
:10394800600000216800002110B5094C094904F104
:1039580008000AF02AFF04F10C0007490AF025FFC5
:1039680004F110000549BDE810400AF01EBF00BF71
:10397800840B0021700000217800002180000021C4
:10398800014B1879704700BF840B002138B5074CEC
:103998000D4600F0A5FEA06825600AF0FEFEFFF7C0
:1039A800EFFB01F03FF80123237538BD840B00219C
:1039B800014B187D704700BF840B002110B50A4CDD
:1039C800E0680AF0EAFE20690AF0E7FEFFF78CFBE0
:1039D800202000F033F8262000F030F8292000F0ED
:1039E8002DF80023237510BD840B00210048704773
:1039F800990B0021004870479B0C0021014B83F86C
:103A080019027047840B0021014B93F81902704783
:103A1800840B0021C208074900F0070001238340F6
:103A2800885C03438B5404490B78934238BF134690
:103A38000B707047180000219E0D00210F4B0121CB
:103A480010B503EBD002C40800F0070001FA00F03B
:103A5800195D21EA0001195509490B78A34205D1DE
:103A6800002012F8014914B100B10B7010BD002BF1
:103A7800FAD0013B0120DBB2F3E700BF18000021B8
:103A88009E0D0021014BD3E9000170471800002169
:103A98000048704720000021054B1868C0F3C02279
:103AA800C0F30020400040EA820040F00100704767
:103AB8001800002108B506F0B3FE0023074A32F8C3
:103AC8002310814205D302EB83029378044A1370D2
:103AD80008BD01330C2BF2D10023F7E7C06A0201BD
:103AE8009F0D0021024B1878072828BF0720704730
:103AF8009F0D00212DE9F04F046898460F4685B0C8
:103B080094F86330164604F1A80994F80FA043EA24
:103B1800D303D90702D4BAF1260F5FD194F8A8507D
:103B2800002F55D1FFF7B8FF8DF80B00002E51D1AB
:103B3800FFF7B2FF2B4B8DF80C00D3F800B0BBF1A8
:103B4800000F0CD0AAF12602284649465342534199
:103B58000DF10B02009303ABD847054630B99DF829
:103B68000B3013B19DF80C0028B90925BAF1260FBE
:103B78002AD10020034694F8292132B19B0700F08E
:103B880002002DD560B302200346FF2284F83921B4
:103B980094F8382102F0FF05F2B99DF8382003A9FE
:103BA80084F83B01484684F8382184F83A31A4F86F
:103BB8003C818DF80C708DF80D60ADF80E800AF020
:103BC80057FE002384F83931284605B0BDE8F08F48
:103BD8003846A9E73046ADE73A25F2E71A25F3E774
:103BE8000925F1E7C415002110B50468B4F8AA3016
:103BF80084F87E11A4F87F3194F82001FFF728FAA1
:103C080084F8810194F82101FFF722FA044984F825
:103C1800820104F27510BDE810400BF02CBC00BF07
:103C280063E800012DE9FF4704688946054694F8D2
:103C38000EA0AAF1250359425941052A35D1E37B43
:103C4800272B37D104F10F0799F8018099F8026002
:103C580008F0070806F0070608F1FF33721E03EAAA
:103C68000803324013431FD130460AF099FE60B36F
:103C780094F82031984228D094F83A21164213D06B
:103C8800BAF1250F21D094F8192116421DD1013817
:103C9800013B474AC0B2DBB21044032B00790FD86E
:103CA8001A441379834210D9284604B0BDE8F04776
:103CB8000AF03EBEBAF1250F77D104F10E07C3E72B
:103CC8004FF4DD710620FDF719FB40460AF068FE47
:103CD80040B194F82131834204D094F83B3118EA7A
:103CE800030FE1D0B9F8039003AB204632460093A6
:103CF80041464B460AF061FE2C6878BB94F838318F
:103D0800012B28D1E38804F5347294F82011B4F813
:103D18003C010AF0B3FE0646D0B901462846FFF733
:103D280063FF2B6883F838613E702B6803F10F023C
:103D3800974201D10022DA732B6803F10F029742F0
:103D48002FD128460BF06DFD002004B0BDE8F087A8
:103D58002C23A373E9E784F83801E6E7E388A4F89D
:103D6800D09209F1FF39A9EB030947F6FD731FFA51
:103D780089F9994506D92823284684F8313001F075
:103D8800F1F8D9E7E37B0D2B02D00A3B012B01D8D0
:103D98002A23F1E7BDF80C30A4F8D23229233B706E
:103DA800CAE7002283F84A20CEE70220CDE700BF09
:103DB800F06A0201024B002283F832209A8670478B
:103DC800A20D0021044B93F83220012A1ABF036088
:103DD80001200020704700BFA20D0021054B0246BC
:103DE80093F8321001291BBF01209A86002083F81E
:103DF80032007047A20D0021054B024693F83200AD
:103E080020B1136009B19B8E0B800120704700BF61
:103E1800A20D0021044B002293F832009A8610B1BB
:103E2800012083F832207047A20D0021034B93F83C
:103E38003200B0FA80F04009704700BFA20D00219F
:103E480050B90A4A0120134603F8010B0868C2F862
:103E580001008A889A807047012805D1034B0A68B7
:103E6800D8719A608A889A81704700BFD80D00215E
:103E780050B90B4B187888B1D3F80120B3F8053046
:103E88000A6001208B807047012806D1044BD8793D
:103E980020B19A689B890A60F3E70020704700BF49
:103EA800D80D002110B9044B18787047012806BFB7
:103EB800014BD87900207047D80D0021F7B58A88C2
:103EC80000238DF80600ADF8042008680B4A8DF829
:103ED80007300146147802F5A872019DD8B28442D1
:103EE80001D8082007E052F8087F01335668AE422F
:103EF80008BF8F42F2D103B0F0BD00BFE80D00212A
:103F0800084B0146002230B55C7803F20113D0B2A9
:103F1800844201D8082004E013F8015F01328D4281
:103F2800F5D130BDE80D0021F8B52D4C6378221885
:103F3800013B92F80251DBB28342637030D01A0120
:103F48000101961C8F1C2644274406F1100C56F8D4
:103F580004EB664547F804EBF9D1823282312244FA
:103F6800214402F1100652F8047BB24241F8047B66
:103F7800F9D1E118221891F8026182F80261062647
:103F88007343704303F5857300F58570E618E358AD
:103F980027182350B388BB8091F83A3182F83A3118
:103FA8002846FFF7ADFF082818D12378013BDBB27C
:103FB8009D42237012D02B3305F12B0204EBC3036F
:103FC80004EBC20293E8030082E803002078FFF7BD
:103FD80097FF08281CBF241884F80251F8BD00BFB9
:103FE800E80D0021F0B5254D89B095F8984105F206
:103FF80099116846224609F0BFF8214668460AF03A
:10400800E6FD0446B8B300EB400102A8C9B2FDF7CB
:104018009DFF631E95F8A1610124DBB295F8981104
:1040280005E0721CB2FBF1F001FB1022D6B206F1DA
:1040380020020DEB020010F8202C002AF1D103EB2E
:10404800430100F8204C06EB460220312A4469441B
:1040580011F8187C82F8A27111F8177C11F8161C57
:1040680082F8A37182F8A411013BAA19DBB282F885
:104078009941FF2BD2D109B0F0BD00BFE80D002156
:1040880070B5064688B00C46002A4ED0294A92F8E8
:10409800A131D01890F8991119B9FF212820FDF7FE
:1040A8002DF903EB43010133114491F8A251E57056
:1040B80091F8A35191F8A41125716171002180F83C
:1040C800991192F89811B3FBF1F001FB103382F8C3
:1040D800A13192F8C23123B9174902F5DD700BF00E
:1040E800C7F965790D220021684605F03F0545F0BE
:1040F8004005657108F0D6FFE37804AA69468DF893
:104108000F30304623798DF80D508DF80E3004238A
:1041180008F040FE9DF81F3023709DF81E30637034
:104128009DF81D30A37008B070BD03216018FDF71D
:104138000DFFD6E7E80D0021ED3F0001044B5A784A
:10414800824286BF1B1893F84A010020704700BFBF
:10415800E80D0021044B5A78824286BF1B1893F859
:1041680042010020704700BFE80D0021064B0022E5
:104178004FF461711A8083F8C32183F8C421A3F82E
:10418800C61183F8C2217047E80D00212DE9F047D8
:104198008246894617469846FFF790FE0828054646
:1041A800064603D0FFF7ACFE082860D1324C63788E
:1041B800072B5ED8082D15D12678731C072E23707F
:1041C80003D96C212820FDF799F806F12B02D9F8BC
:1041D800000004EBC20344F83200B9F8042083F865
:1041E80006A09A80657807F110026B1C290163709C
:1041F8004B1C234412F8010DBA4203F8010FF9D100
:10420800813108F11003214413F8012D984501F874
:10421800012FF9D12544102140460AF008FD10214C
:1042280085F8420138460AF002FD85F80261667891
:10423800002385F84A013146104885F83A310AF0DA
:10424800C6FC0128054607D831460D480AF0BFFCD0
:10425800002818BF0135EDB284F89851002528468A
:1042680084F8A151FFF7BEFE2846BDE8F08712206A
:10427800FBE70720F9E700BFE80D00212A0F00211E
:10428800320F0021064B10B55878013840B200288B
:1042980000DA10BDC4B22046FFF746FE601EF5E7FF
:1042A800E80D0021014B83F8C3017047E80D002198
:1042B800014B93F8C3017047E80D0021431E4AF2F1
:1042C800B7129BB293429DBF024BA3F8C6010120CF
:1042D80000207047E80D0021014BB3F8C601704774
:1042E800E80D00210A4B30B55C7884420ED9184499
:1042F80090F802012B3003EBC004A5790D7053F838
:10430800300010600120A388938030BD0020FCE7B6
:10431800E80D00210246074810B590F8C34124B1C2
:10432800417821B1023004F039F9204610BD0C461D
:10433800FBE700BFE80D00212DE9F74F2F4C9A4607
:10434800804689466378834256D9231893F84251A8
:1043580085F00105F9B193F84A31E3B945F0020750
:104368000135BAF1000F18D1FA070AD5062104EB76
:104378000810524601FB0841823001F58571FFF7AC
:104388007FFEBB0734D504EB08105246494602307D
:10439800FFF776FE2CE02F46E3E794F8A1614FF093
:1043A800010B002DE0D0A31993F89911019399B945
:1043B8000092DAB100F006FB019B06EB4601009A79
:1043C8004FEA102C83F899B1214481F8A201000C1E
:1043D80081F8A3C181F8A401013694F89831013D10
:1043E800B6FBF3F103FB1166F6B2DAE747F0040710
:1043F800384603B0BDE8F08F0027F9E7E80D002143
:10440800074B5A78824209D91A1892F842212AB9D8
:10441800062202FB003000F58570704700207047C7
:10442800E80D0021064B5A78824281BF1B1893F889
:104438003A01B0FA80F0400998BF0020704700BFE9
:10444800E80D0021F8B50E46074606211546304608
:104458000AF0EDFB044670B10C4B0022587803F2C9
:104468003913D1B2884202D801242046F8BD01325E
:1044780003F8015FF5E7314638460AF0C4FB08281F
:10448800F3D0024B034483F83A51EDE7E80D0021DD
:10449800034B80F880101B680BB1408818477047A1
:1044A800C81500210B2808B504D940F22911292084
:1044B800FCF724FF014B33F8100008BDF86A02012D
:1044C800036830B50024D3F8C80042F21075A3F889
:1044D8004040B3F844404443B4FBF1F4A3F84440EB
:1044E8004C1E05FB0242B2FBF1F2A3F84220094A36
:1044F800B2FBF1F20132A3F848209A8F05FB02447F
:104508005A6B5043B4FBF1F4B0FBF1F09C63586371
:1045180030BD00BF005A6202054B1B7833B9054B0A
:104528001A681B79026003710120704700207047E8
:10453800B00F002128000021054BFF221A70054A00
:10454800016811600179117100221A70704700BF6B
:10455800B00F00212800002107B5064A106812791B
:10456800009068468DF80420FFF7E6FF03B05DF879
:1045780004FB00BF7A8002010346084671B13F2B55
:104588000BD8074AD35C03F07F02914205D08CBF59
:104598000120002000EAD31070470120704700BFB7
:1045A800106B0201FF230B7002234B7083238B7067
:1045B800014B1B78CB707047B40F00212DE9F84FE1
:1045C800D0F804800C46D8F81C60304609F04CFA44
:1045D800054620B94FF4AA711020FCF78FFE01465A
:1045E800304609F04FFAB5F800B082461FFA8BF74B
:1045F80017B94FF4AC71EFE7224B00F103091B68C0
:10460800D3B998F8023098F803202370637802F041
:104618000F02A4F802B023F00F03134323F0C003E2
:1046280063709AF8003003F00303012B0FD0022BBC
:104638000DD04FF4BB71CFE73A464946B8F80200AF
:10464800984705460028DCD12846BDE8F88F6278EF
:10465800304663F30512627009F01EFA054610B978
:104668004FF4C071B8E7FB2F02D940F28F11B3E7BE
:104678003A464946201D08F07FFD304609F063F9A7
:10468800E2E700BFCC15002138B5134C10220021F9
:10469800201D08F007FD0125257404F108031022E8
:1046A800002104F11400C4E9013308F0FBFC84F88C
:1046B800205004F11803094AC4E905330023636252
:1046C800A36284F82C30C4F82D30C4F8313084F853
:1046D80035301360A36338BDB40F0021CC15002119
:1046E80010B5084C2378FF2B04D040F29911102004
:1046F800FCF704FE08F094FB2070BDE81040FFF7BB
:10470800C3BF00BF2D00002110B5034C207808F06E
:10471800A1FBFF23237010BD2D000021014B187849
:1047280008F0A8BB2D000021014B024A1A6070470F
:10473800D4150021C54500012DE9F341DFF8888132
:10474800054608F11407D8F80830D8F81840227A36
:10475800012A22D1D8F8382052B1137A1BB9BF21C7
:104768001020FCF7CBFDD8F83840C4B9002093E0FE
:104778001A7A012AFAD01C46544AEFF3108172B60D
:1047880050680068506001B962B6A34208BFC8F813
:104798003840237A1BB9EE21E2E73A46EDE7267A5C
:1047A800F6B205232372731E0B2B7ED8DFE803F0C5
:1047B8007A062336773F4E3F3F3F3F6B636813B916
:1047C8004FF40371CCE72046294698470420EFF3BD
:1047D800108272B6237A052BD9B24FF0000369D143
:1047E8002372D8F83810A14201D1C8F83830002A0D
:1047F80045D162B643E0636813B940F21521AFE7CB
:104808002946204698470346ADF80400C0B2C3F3D2
:104818000723012B3ED0022BD9D129E0636813B9B5
:1048280040F21D219CE7204698470020CFE7284BFF
:104838001B68002BF9D03246606829469847A6F1D4
:104848000A020420534253415B00E4E763680BB952
:10485800FE2185E786222A7001225988AA706A718A
:1048680000229869A5F80310AA7109F06CF80420D1
:10487800D8F83830A34202D10023C8F838300028CD
:104888003FF461AF08E0134B294620461B68984760
:10489800034668B9267298B102B0BDE8F0814FF4BA
:1048A80015715DE740F257215AE740F25A2157E760
:1048B8000220DDE711B940F27B2151E7184696E75F
:1048C800002B7FF440AF51E7B40F0021B80F00214F
:1048D800D0150021D4150021134610B5027A22B153
:1048E80040F202311020FCF709FD0A460146024851
:1048F800BDE810400AF099BDB80F0021044890F8AF
:104908002C301BB9034924300AF0ACBD704700BFF6
:10491800B40F002123F400010346064890F83C2018
:104928003AB190F8352022B9034900F82D3B0AF036
:1049380099BD7047B40F0021AD4500010A4610B576
:10494800037A23B140F20A311020FCF7D7FC014664
:1049580007230248BDE810400AF067BDC80F0021D0
:104968001346027A0AB1037270470A4601460148A3
:104978000AF05BBDB80F002101490AF07CBD00BFF9
:1049880085F400010B8BA2F809001046A2F80B3041
:104998004B8BA2F80D308B8BA2F80F30CB8B0249D2
:1049A800A2F811300AF061BDE3F40001014B187858
:1049B800704700BFF10F0021014B1878704700BF06
:1049C8002E000021094AD2E90003434083EAB011CE
:1049D80081EA43214FEAF34311605360044B584383
:1049E8004FEAF06000EB8000704700BFF40F002131
:1049F800BB79379E094AD2E90003434083EAB011E4
:104A080081EA43214FEAF34311605360044B584352
:104A18004FEAF06000EB8000704700BF30000021D3
:104A2800BB79379E10B50A4C08210948FDF78EFA64
:104A3800D4E900321343F7D0064CFFF7DBFF2060C0
:104A4800FFF7D8FF236860601843F6D010BD00BF99
:104A580030000021F40F0021174B184A9A60184AB9
:104A68005A60184A1A60184A9A62184ADA62184A4A
:104A7800DA60184A9A61184A1A63184A1A62184A78
:104A8800DA64184A9A64184A5A62184B184A9A60A3
:104A9800184A5A62184ADA62184A1A61184A5A6158
:104AA800184A9A61184A1A63184A9A64184ADA64C2
:104AB800184A9A63704700BFD8150021D3F800013F
:104AC800F9F8000125FA0001B1FB00010DFC000115
:104AD800955000011FFC00014D530001A551000134
:104AE800F1FC000117FD000101520001D816002158
:104AF800E9F80001B7FC00013DFC0001EDFB0001F5
:104B08005DFC000135510001BDFD00015BFD0001A8
:104B180047FD0001A1FC0001044B054A5A65054BFD
:104B2800054A1A65054A5A65704700BFD81500211D
:104B38000DFF0001D8160021F7FE000137FF000124
:104B4800054B064A9A65064A1A66064B064A9A654E
:104B5800064ADA65704700BFD815002137EB000117
:104B68002D3C0001D816002191E9000179EB0001E4
:104B7800F7B5054601A80F46FFF724F920B94FF409
:104B8800AA615120FCF7BAFB32220021019808F0F3
:104B980089FA019C3F2F264606F8037F43D83F2F0A
:104BA80044D8DFE817F046004C006C0075008D0013
:104BB8005C015C019A00B3009E005C015C01A300EB
:104BC800AF00B30043004300B7005C015C01CC00B8
:104BD800CC00E300E300EA00430043005C01EF007F
:104BE800FC00000104010B010D010F0111011B0163
:104BF80025013C013E01430043002D0146014401CB
:104C08004300430043004300430043004300430084
:104C180043004300430043004300430048014A0166
:104C2800430040014201FF2F00F00D8140F2445142
:104C3800A7E7294630460AF055FFC0B9BBE02E6801
:104C4800D6F83032636096F834322372286890F8C8
:104C58009F3033B90AF026FE2B68DB881844A6F883
:104C68003602B6F83632082063721B0AA372FFF7C1
:104C7800B5F8002840F0F58040F2575181E72B68DD
:104C880093F8A82052BB93F82D3102202371EEE748
:104C98002B681720D3F878226260D3F87C22A260B0
:104CA800B3F88022A281D3F85822C4F80E20D3F892
:104CB8005C22C4F81220D3F89030C4F81630D6E736
:104CC8002A680D20D2F8F6316360D2F8FA31A36071
:104CD8002B68D3F89430E360C9E72B6893F8A030C9
:104CE800D3E73146284600F0F3FAA6E71123062059
:104CF8002371592363710023A3713923E37120239E
:104D08002372B4E72B6893F89A30BEE7304600F078
:104D1800CDFA92E72B6893F8A82052B993F8A0200F
:104D28003AB193F89D20227193F89C300320637167
:104D38009DE793F89B20227193F89A30F6E72B6849
:104D48000920B3F80C212271120A6271B3F8A2206B
:104D5800A271120AE271B3F808212272120A627271
:104D6800B3F8A030A3721B0AE37280E72B6893F8AC
:104D78003A21227193F83B31D8E72946304609F0A9
:104D880099FE5AE72B680F21B3F8AA00FCF79EFE9C
:104D980000F15B0130460AF093FA232067E73046BA
:104DA8000BF04EFF49E730460BF053FF45E72E4B1B
:104DB8001B68002B43D140F24951E2E62B4BF7E741
:104DC8002B4BF5E72B4BF3E72B4B1B68002BF2D053
:104DD80023202A4631469847042048E7264B1B687B
:104DE800002BE8D02A4631462420984705203EE784
:104DF800214B1B68002BDED02A4631462520F4E7DC
:104E08002B680F21B3F8AA00FCF760FE00F17D02C1
:104E180000F15B0130460AF05FFA2B2027E7174BB9
:104E2800C6E7174BC4E7174BC2E7174BC0E7174B4A
:104E3800BEE7174BBCE7174BBAE7174BB8E729464D
:104E480030469847F9E62B68304693F8C722D3F8DE
:104E5800C8120AF002FA2B6893F8C702EDE601209F
:104E680005E703B0F0BD00BFD8170021E017002107
:104E7800DC170021E4170021E8170021F4170021AE
:104E8800F8170021FC17002100180021EC17002159
:104E9800F017002104180021081800213F289ABFA4
:104EA800024B53F820000020704700BFD81500219E
:104EB8003F289ABF024B53F820000020704700BFDC
:104EC800D816002130F8023CF7B504460D46B0F874
:104ED800826073B101226846ADF801608DF8002048
:104EE800ADF80330FEF78AFA18B195216320FCF774
:104EF80005FA194B1B6813B1A4F128009847174B02
:104F08001B680BB13046984783230027A5F8036038
:104F18002B70AF70637AD4F89C006B7108F01DFD9C
:104F280008B9BA21E2E739463046FCF7E5FD022127
:104F38003046FCF7E1FD18B9094B1B6803B19847E7
:104F48004FF40173002003F004021B0A62F3070008
:104F580063F30F2003B0F0BD0C18002110180021D6
:104F680014180021F7B5056804464FF6FF77D5F801
:104F7800C0600DF102010DF101023046ADF802707A
:104F880008F09AFC01A9304608F0B8FC48B101982D
:104F980008F080FD2168A83100220272FFF7CEFCDC
:104FA800E7E7044905F1280003B0BDE8F0400AF03E
:104FB8005CBA00BFCD4E0001F0B5044685B00D4681
:104FC800FF2600F8E96C10F8EA3CF3B1174F3B787C
:104FD8001BB162211F20FCF791F90C21381DFCF749
:104FE800B5FF3E70002304F8E93C8A232A4602F8FC
:104FF800033BD4F80930C5F80330D4F80D305360BA
:10500800D4F81130936005B0F0BD01A80C21FCF76D
:105018009DFFA4F51573039A1A6001AB03CB44F8FE
:10502800F20C44F8EE1C04F8EA6CDBE7FC0F0021F4
:1050380010B5054C23782BB90C21201DFCF786FFF1
:10504800FF23237010BD00BFFC0F0021024690F81B
:10505800FE31BBB990F8FF3103F0FF010BB100201E
:105068007047094B18780028F9D01970D9680433AB
:10507800C2F8941003CBC2F8F601C2F8FA11FF2364
:1050880082F8FE3101207047FC0F0021026838B514
:10509800D37B04460D463BB1132B05D0113B0F2B98
:1050A8008CBF0120082038BDD2F8A430ABBB92F8E1
:1050B800523013B920460AF0A2FBD5F80B3022680B
:1050C800C2F8EE31D5F80F30C2F8F2312368D5F8BE
:1050D8001320C3F89020B3F8AA20A3F8F122D5F83A
:1050E8000120C3F8F322D5F80520C3F8F722236876
:1050F800B5F809200025A3F8FB22236883F8B851E6
:1051080083F8FE512068084900F53A700AF0AAF9B8
:10511800236816222846DA73C5E720460C220321A5
:10512800BDE838400AF091BBC14F0001036810B5D3
:10513800DA7B0446202A04D040F29D211F20FCF788
:10514800DDF8002193F85220B3F8AA0083F8511033
:1051580082B1C3F8C31183F85210A3F8C711A3F89A
:10516800C40103F5DD700B490AF07CF923680022BD
:10517800DA7310BD0121A3F8B30183F8B22103F259
:10518800A91083F8B51183F8B9210349A3F8B6210A
:10519800EAE700BF99FB000181FB000138B504680C
:1051A80094F8A8501DB9E37B23B101201AE02368C5
:1051B800DB07FAD4D1F801200D4BD1F805101340C4
:1051C8000C4AC4F86230C3F307630A4043F008038B
:1051D800C4F8662084F865300AF011FB1DB9042371
:1051E800E373002038BD236843F001032360F8E728
:1051F8002FC904F76FDB008038B503689A7B042A4F
:1052080034D1D1F801204C1CD1F80550C3F86220E4
:10521800C2F30762C3F8665042F0080283F86520BB
:10522800002283F84A209A73026892F8A8200AB9E3
:1052380083F83F2193F84021B2B993F88B2102F00B
:10524800FF008AB9B3F8AA2083F88C0103F283100F
:10525800A3F88D21D1F801200549C3F88F21626890
:10526800C3F893210AF0FEF8002038BD0120FCE7BE
:1052780077FC0001036893F8402112B1094B1B68C1
:10528800184793F88B215AB9B3F8AA2003F2831070
:105298000549A3F88D211A2283F88C210AF0E2B877
:1052A800704700BF1818002177FC000110B50446AC
:1052B800FEF7E8FB044A054B024009200B40C4F8FE
:1052C8000120C4F8053010BD2FC904F76FDB00803A
:1052D80037B50C460568FEF7D5FB0A4B0A4A03406A
:1052E8000A4095F8621000930B4001928DF8003047
:1052F8006B4603CBC4F801000920C4F8051003B0BD
:1053080030BD00BF2FC904F76FDB008038B5DB0460
:10531800154604D5037D13B10023436338BD446BA0
:10532800013444630AF025FD836B9C42F6D30023C5
:10533800034943632846BDE838400AF09CB800BFDB
:10534800E5FC000170B504680546A37B94F8A860E5
:10535800012B07D01EB9E37B23B1012038E0236875
:105368009807FAD494F853309A0713D44A78D80790
:1053780084F85D204A88A4F85E208A88A4F8602012
:1053880043F0020284F853200FD5164904F1540063
:105398000AF071F894F85330D90710D4CEB9E37BEA
:1053A80043B153214020FBF7A9FF94F83E31002B6D
:1053B800EBD1EFE70123E37328460AF020FAA37B39
:1053C8000020012B4FF0000304BFA37384F84A3078
:1053D80070BD23689A0701D55821E3E743F002031B
:1053E8002360E9E79BFD000170B50568044603F0FA
:1053F8008FF8054B0146E8721B681BB12046BDE8D3
:105408007040184770BD00BF20180021024B1B6870
:1054180003B11847704700BF1C180021F0B51F4D95
:1054280000242B7814709BB1013B6D68DBB21E1B06
:10543800012E0FDC05EBC40655F8347076688E42F1
:1054480008BF874227D0B84271EB060612D2147003
:105458000020F0BD1E197710C6F3470655F837C06F
:1054680005EBC70E8445DEF804708F412CBF334628
:105478003446DCE705EBC30455F8335064688C42C6
:1054880008BF854206D0A84271EB040428BF013347
:105498001370DDE71C4601201470DAE71C100021A8
:1054A80010F0070208B503D063214820FBF726FF58
:1054B80018B1034B197258601A70C80008BD00BFB4
:1054C8001C100021014B00221A7070471C1000218B
:1054D800024B1879003818BF012070472C100021A2
:1054E800FF23084A0B700D234B7082238B701368BF
:1054F800C1F803305368C1F807309368C1F80B301E
:10550800704700BF3210002116220021014807F021
:10551800C9BD00BF32100021F8B51C4D04466B7D93
:105528009BB390F8A83023BBD0E976760AF0A6FCA6
:1055380094F82021164B913033F812304FF47A72D8
:1055480003F23F63B3FBF2F3DB19B4F8AA2046F188
:1055580000061B182A8046F100066B60AE60E388DF
:1055680005F10C0002220B496B80BDE8F840FFF7FB
:10557800F7B94B0609D5B0F8AA302B80D0F87832A5
:105588006B60D0F87C32AB60E9E7F8BD32100021DF
:10559800CC6C0201E9540001094B53F8203003F5A3
:1055A800234370B5A13316464FF47A720C46B3FB09
:1055B800F2F5344404F052FA2C44204470BD00BF84
:1055C800B86C02012DE9F04F98468BB000230446D1
:1055D8000F460392069390F821B109F03CF906466C
:1055E80094F82B01FEF75EFF06440AF047FCE37BC4
:1055F80000F18605B6B2472B47D00D2B45D094F85D
:105608000E90A9F14701D1F1000949EB0109039B6B
:10561800002B40F08580637B032B40F08180B9F13B
:10562800000F6AD0B4F8D032BB4266D1D4F8183231
:105638002046B4F8EC21C4F80832D4F8C830C4F8CD
:105648000C32B4F88A321344C4F8103202F0C2FEA5
:1056580094F829A1BAF1000F09D0D4F8D82241F65C
:105668004B539A428CBF4FF0000A4FF0010A94F84E
:10567800E4326BB9D4F8C820D4F8D8329A4221D091
:10568800B4F8AA000BF0FBFA1CE04FF00109BEE7E2
:10569800B4F8AA000BF0F0FA20B940F242713020B9
:1056A800FBF72CFEB4F8E0324FF0000AA4F8DE3025
:1056B800B4F8E2328381B4F8D032A0F80EA0438166
:1056C800013B038294F82A31002B4ED1BAF1000F26
:1056D8004ED1D4F8D43284F82AA1C4F8D830B4F81A
:1056E800D232A4F8DC30D4F8D832C4F8C830D4F8B0
:1056F800DC32C4F8D03002236373A17B292946D059
:10570800A1F12C0251425141E27B292A00D039B142
:10571800B4F8D032FB1A1B0402D4204602F096F8E3
:10572800B4F888A204F5167394F82101A7EB0A0AC5
:105738000293E3880FFA8AFAFB1ABAF1000F0FFAFC
:1057480083FC26DAE246D4E99C23C4E9A02300239B
:1057580084F82B320123627B032A00F2B681DFE84A
:1057680012F01A002B0171004F01BAF1000F07D097
:105778004FF04D13C4F8E0300023A4F8E430A8E754
:105788004FF09613A4F8E4A0C4F8E030A1E7012193
:10579800BAE74346DFE7014694F8E50109F0A2FAC3
:1057A8008246D4F8D8003146504404F0FDFF314613
:1057B800C4F81402D4F8C80004F0F6FF07A9C4F826
:1057C800180208A804F000F8079B0093DDE90823F5
:1057D800D4E9A00105F0AEF8064604F1A8000AF0E5
:1057E800D6FBD4F88C3294F82101D4F8D8B00693BB
:1057F80004F03CF9069B00F52340D4F814124FF44A
:105808007A72203BA1305B445B1A30315B1BB0FBE2
:10581800F2F053442A469B1B1B1A94F82101069365
:10582800B4F8DC3003EB4101FFF7B6FED4F88C2264
:10583800069B22309B1AC4F81C02F52B5CD840F258
:10584800C7412CE7D4F8D8303146D4F80C021844B4
:1058580004F0AAFF3146C4F81402D4F8C80004F0D2
:10586800A3FFC4F8180204F1A8000AF090FBD4F8CA
:10587800D830D4F80C621E44B4F8EC31002B40F058
:105888009780B8F1000F00F0938094F8210104F09C
:10589800EDF8D4F81412D4F8783200F52340761ACB
:1058A80094F82121A130203E1E44A24B53F8222017
:1058B8004FF47A7302F2E732D4E99CABB2FBF3F20D
:1058C800A6EB0A06B0FBF3F01644761B361AD4F89A
:1058D8000832D4F8102294F8210102FB0311B4F81D
:1058E800DC302A460696303103EB4101FFF754FEBF
:1058F8000123C4F81C026373D4F8C83004F1E8002B
:10590800D4F81822A03B06999B1A5D1BD4F81C32C8
:105918009D4228BF1D46002384F85832C4F8E85138
:10592800D4E9A0325B1842F10002C4E99A3209F0C6
:105938001EFE04232844A4F8887284F86132C4F84F
:105948005C02D4E99A23C4E9A02302F095F820B1B7
:10595800D4F85C321E33C4F85C32B4F8D831DB1B9F
:105968001BB2002BD4BF00220122520084F860220F
:10597800B9F1000F40F0AC80B8F1000F40F0AB80F7
:10598800637B002B00F0C380D4F8C81004F51670B0
:10599800D4F81832C91A09F056F980B2002800F074
:1059A800B680149B03B1188001200BB0BDE8F08FBE
:1059B800D4F81412761A8AE7D4F81822D4F8C83022
:1059C800D4F810129B1AD4F808620AFB03F3069362
:1059D800B4F8EC319C44D4F81432ACEB010C3033FD
:1059E8000CF1FF3C06FB0133B4F8DC1002FB0C336E
:1059F8002A4601EB4301FFF7CFFDC4F81C027BE701
:105A0800D4F8C82002FB0AF20692B8F1000F1CD0A5
:105A1800B4F8EC11C9B984F82B12D4F8181201FBA8
:105A28001A2EB4F8ECA10291CDF818E06BB3BAF1D4
:105A3800000F2AD1D4E99E61D4E99C23B24273EBCA
:105A4800010108D340F20E5129E694F82B120029DF
:105A58007FF452AFE1E7374B203E53F82B104FF459
:105A68007A7BD4E99C23CDE9042301F2E73301F5DD
:105A78002341049AA131B61AB3FBFBF3B1FBFBF146
:105A88001E44761A761B76440696029BE2442A4602
:105A980003FB0AFA0AF1300A4FEA4A0A5146FFF7AD
:105AA8007BFD41F64B53C4F81C02D4F8C800984259
:105AB8003FF622AF06AB2A465146009304F507731A
:105AC80009F02CF984F82B0216E740F22651E6E596
